:100000000C945D000C9485000C9485000C94850084
:100010000C9485000C9485000C9485000C9485004C
:100020000C9485000C9485000C9485000C9485003C
:100030000C9485000C9485000C9485000C9485002C
:100040000C949A040C9485000C9468040C9442045B
:100050000C9485000C9485000C9485000C9485000C
:100060000C9485000C94850000000008000201003B
:100070000003040700000000000000000000000072
:10008000250028002B0000000000240027002A0083
:10009000040404040404040402020202020203032E
:1000A0000303030301020408102040800102040836
:1000B0001020010204081020E40411241FBECFEF19
:1000C000D8E0DEBFCDBF11E0A0E0B1E0EAE2F9E1A7
:1000D00002C005900D92A63BB107D9F722E0A6EB2E
:1000E000B1E001C01D92A03BB207E1F710E0CDE501
:1000F000D0E004C02197FE010E94830ACC35D107CD
:10010000C9F70E9423050C94930C0C94000090E016
:10011000FC01EC55FF4F249180579F4FFC018491C7
:10012000882399F090E0880F991FFC01EA57FF4F50
:10013000A591B491FC01E458FF4F859194918FB73C
:10014000F894EC91E22BEC938FBF0895AF92BF929D
:10015000CF92DF92EF92FF920F931F93CF93DF9393
:100160006C017B018B01040F151FEB015E01AE18C2
:10017000BF08C017D10759F06991D601ED91FC91E4
:100180000190F081E02DC6010995892B79F7C50111
:10019000DF91CF911F910F91FF90EF90DF90CF9063
:1001A000BF90AF900895FC01538D448D252F30E012
:1001B000842F90E0821B930B541710F0CF96089574
:1001C00001970895FC01918D828D981761F0A28DA1
:1001D000AE0FBF2FB11D5D968C91928D9F5F9F7367
:1001E000928F90E008958FEF9FEF0895FC01918D1D
:1001F000828D981731F0828DE80FF11D858D90E08A
:1002000008958FEF9FEF0895FC01918D228D892F26
:1002100090E0805C9F4F821B91098F73992708950E
:1002200089EC91E00E94040121E0892B09F420E08F
:10023000822F089580E090E0892B29F00E94100120
:1002400081110C9400000895FC01A48DA80FB92F12
:10025000B11DA35ABF4F2C91848D90E001968F73EE
:100260009927848FA689B7892C93A089B1898C910D
:10027000837080648C93938D848D981306C002885C
:10028000F389E02D80818F7D80830895EF92FF9226
:100290000F931F93CF93DF93EC0181E0888F9B8DA9
:1002A0008C8D98131AC0E889F989808185FF15C063
:1002B0009FB7F894EE89FF896083E889F989808186
:1002C0008370806480839FBF81E090E0DF91CF9155
:1002D0001F910F91FF90EF900895F62E0B8D10E077
:1002E0000F5F1F4F0F731127E02E8C8D8E110CC0E6
:1002F0000FB607FCFACFE889F989808185FFF5CF31
:10030000CE010E942401F1CFEB8DEC0FFD2FF11DEA
:10031000E35AFF4FF0829FB7F8940B8FEA89FB896D
:1003200080818062CFCFCF93DF93EC01888D8823CB
:10033000B9F0AA89BB89E889F9898C9185FD03C048
:10034000808186FD0DC00FB607FCF7CF8C9185FF2D
:10035000F2CF808185FFEDCFCE010E942401E9CF4D
:10036000DF91CF91089590E0FC01E859FF4F24916F
:10037000FC01EC55FF4F3491FC01E057FF4FE49135
:10038000EE23C9F0222339F0233001F1A8F4213003
:1003900019F1223029F1F0E0EE0FFF1FE458FF4F72
:1003A000A591B4918FB7F894EC91611126C0309566
:1003B0003E233C938FBF08952730A9F02830C9F021
:1003C000243049F7809180008F7D03C080918000A8
:1003D0008F7780938000DFCF84B58F7784BDDBCFAC
:1003E00084B58F7DFBCF8091B0008F778093B00074
:1003F000D2CF8091B0008F7DF9CF3E2BDACF3FB7BF
:10040000F8948091BB019091BC01A091BD01B09185
:10041000BE0126B5A89B05C02F3F19F00196A11D6E
:10042000B11D3FBFBA2FA92F982F8827BC01CD013E
:10043000620F711D811D911D42E0660F771F881F9D
:10044000991F4A95D1F708958F929F92AF92BF92CC
:10045000CF92DF92EF92FF924B015C010E94FF016D
:100460006B017C010E94FF016C197D098E099F09B7
:10047000683E734081059105A8F321E0821A910836
:10048000A108B10888EEC80E83E0D81EE11CF11C5B
:1004900081149104A104B10429F7FF90EF90DF903B
:1004A000CF90BF90AF909F908F9008952FB7F89402
:1004B0006091B7017091B8018091B9019091BA0132
:1004C0002FBF0895FC0101900020E9F73197AF019B
:1004D000481B590BBC0189EC91E00C94A6008F924B
:1004E0009F92AF92BF920F931F93CF93DF93CDB79D
:1004F000DEB7A1970FB6F894DEBF0FBECDBF19A22D
:10050000423008F44AE08E010F5D1F4F842E912C7B
:10051000B12CA12CA50194010E942A0AE62FB90151
:10052000CA01EA30F4F4E05DD801EE938D01232B8B
:10053000242B252B79F790E080E0109719F0CD015E
:100540000E946202A1960FB6F894DEBF0FBECDBF27
:10055000DF91CF911F910F91BF90AF909F908F909F
:100560000895E95CE1CFCF93DF93FC01448155818D
:100570006081718189EC91E00E94A600EC0188E124
:1005800091E00E9462028C0F9D1FDF91CF91089530
:10059000CF93DF930E946202EC0188E191E00E9418
:1005A00062028C0F9D1FDF91CF910895EF92FF9211
:1005B0000F931F93CF93DF9300D000D0CDB7DEB75A
:1005C00089EC91E00E94E20089EC91E00E94E20057
:1005D0008E010F5F1F4F78018A3341F0F80181933C
:1005E0008F0189EC91E00E94E200F6CFC7010E94E2
:1005F000AD09182F89EC91E00E94E2008053990B1D
:100600008230910520F4682F812F0E94B30189EC7C
:1006100091E00E94E2008A3011F08D30C1F789EC40
:1006200091E00E94F6008A3021F489EC91E00E946A
:10063000E2000F900F900F900F90DF91CF911F91DC
:100640000F91FF90EF900895FC0124813581232BB9
:1006500039F421E0FB018081882349F020E007C0C4
:10066000808191810E94740C21E0892BB9F7822F3F
:1006700008950F931F93CF93DF93EC0188819981A5
:10068000009759F02A813B812617370730F081E027
:10069000DF91CF911F910F9108958B016F5F7F4F75
:1006A0000E94AE0B009759F0998388831B830A83BD
:1006B0002C813D81232B59F7FC011082E8CF80E08B
:1006C000E7CFEF92FF920F931F93CF93DF936115C4
:1006D000710541F480E0DF91CF911F910F91FF9060
:1006E000EF90089541155105B1F07B01EC010C81AB
:1006F0001D81040F151FB8010E943903882351F38F
:10070000288139818C819D81B701820F931F0E94BE
:100710007D0C1D830C8381E0DECFCF93DF93EC0152
:1007200088819981009711F00E94250B1982188207
:100730001D821C821B821A82DF91CF910895EF9255
:10074000FF920F931F93CF93DF93EC017B011982EC
:1007500018821B821A821D821C82FB0101900020DC
:10076000E9F731978F01061B170BB8010E94390377
:10077000811109C0CE01DF91CF911F910F91FF90A0
:10078000EF900C948D031D830C83B70188819981B0
:10079000DF91CF911F910F91FF90EF900C947D0C02
:1007A000EF92FF920F931F93CF93DF938C017B0106
:1007B000EB0109900020E9F72197C61BD70BBE017A
:1007C0000E943903811109C0C801DF91CF911F91A7
:1007D0000F91FF90EF900C948D03F801D583C483A3
:1007E000B70180819181DF91CF911F910F91FF908F
:1007F000EF900C947D0C0F931F93CF93DF93CDB7A5
:10080000DEB762970FB6F894DEBF0FBECDBF8C0186
:10081000CB01F80111821082138212821582148298
:100820004AE0BE016F5F7F4F0E94CB09BE016F5F40
:100830007F4FC8010E94D00362960FB6F894DEBFC6
:100840000FBECDBFDF91CF911F910F910895CF9330
:10085000DF93EC01FB0144815581608171810E942D
:100860006103811103C0CE010E948D03CE01DF918F
:10087000CF910895FC0180819181009711F00C9433
:10088000250B08951F920F920FB60F9211242F93EC
:100890003F934F935F936F937F938F939F93AF9308
:1008A000BF93EF93FF9389EC91E00E942401FF91A5
:1008B000EF91BF91AF919F918F917F916F915F91D8
:1008C0004F913F912F910F900FBE0F901F90189551
:1008D0001F920F920FB60F9211242F938F939F9315
:1008E000EF93FF93E091D901F091DA018081E091DB
:1008F000DF01F091E00182FD1BC090818091E20157
:100900008F5F8F732091E301821741F0E091E20144
:10091000F0E0E753FE4F958F8093E201FF91EF9156
:100920009F918F912F910F900FBE0F901F90189550
:100930008081F4CF1F920F920FB60F9211242F9344
:100940003F938F939F93AF93BF938091B701909103
:10095000B801A091B901B091BA013091B60123E07C
:10096000230F2D3758F50196A11DB11D2093B60117
:100970008093B7019093B801A093B901B093BA01E5
:100980008091BB019091BC01A091BD01B091BE01CD
:100990000196A11DB11D8093BB019093BC01A09352
:1009A000BD01B093BE01BF91AF919F918F913F91D7
:1009B0002F910F900FBE0F901F90189526E8230FD0
:1009C0000296A11DB11DD2CFE9ECF1E01382128293
:1009D00088EE93E0A0E0B0E084839583A683B7839C
:1009E0008AE091E09183808385EC90E0958784870D
:1009F00084EC90E09787868780EC90E0918B808BE9
:100A000081EC90E0938B828B82EC90E0958B848BD1
:100A100086EC90E0978B868B118E128E138E148E3F
:100A2000E6E6F2E016821782108611861286138699
:100A30001486158616861786108A118A128A138ADA
:100A4000148A158A0895CF93DF93CDB7DEB7AD979B
:100A50000FB6F894DEBF0FBECDBF789484B5826028
:100A600084BD84B5816084BD85B5826085BD85B552
:100A7000816085BD80916E00816080936E001092D0
:100A8000810080918100826080938100809181004B
:100A900081608093810080918000816080938000DC
:100AA0008091B10084608093B1008091B00081603A
:100AB0008093B00080917A00846080937A00809166
:100AC0007A00826080937A0080917A0081608093BE
:100AD0007A0080917A00806880937A001092C10039
:100AE0001092A8021092A9021092AA021092AB02D0
:100AF000109268021092690210926A0210926B02C0
:100B00000E9456026B017C014B015C0128EB820EB6
:100B10002BE0921EA11CB11C0E9456026C157D0593
:100B20008E059F0528F086169706A806B906A0F739
:100B300068EE73E080E090E00E942402E091D90129
:100B4000F091DA0182E08083E091D501F091D60145
:100B50001082E091D701F091D80180E1808310925A
:100B6000E101E091DD01F091DE0186E08083E0911A
:100B7000DB01F091DC01808180618083E091DB0109
:100B8000F091DC01808188608083E091DB01F0914D
:100B9000DC01808180688083E091DB01F091DC01E1
:100BA00080818F7D80830E945602609368027093DB
:100BB000690280936A0290936B028BE191E00E943C
:100BC00062020E9456026B017C014B015C013AE01B
:100BD000830E911CA11CB11C0E9456026C157D0550
:100BE0008E059F0528F086169706A806B906A0F779
:100BF00011E010937C020E94560260936802709389
:100C0000690280936A0290936B028CE291E00E94E9
:100C10006202E091D901F091DA0182E08083E091F3
:100C2000D501F091D6011083E091D701F091D80160
:100C300081E280831092E101E091DD01F091DE011B
:100C400086E08083E091DB01F091DC0180818061AE
:100C50008083E091DB01F091DC01808188608083FA
:100C6000E091DB01F091DC01808180688083E0917C
:100C7000DB01F091DC0180818F7D808382E00E9426
:100C8000870083E00E94870084E00E94870085E05F
:100C90000E94870086E00E94870087E00E9487000C
:100CA00083E391E00E94C80261E082E00E94B30108
:100CB00064EF71E080E090E00E94240261E083E054
:100CC0000E94B30164EF71E080E090E00E94240292
:100CD00061E084E00E94B30164EF71E080E090E0A5
:100CE0000E94240261E085E00E94B30164EF71E09C
:100CF00080E090E00E94240261E086E00E94B3015F
:100D000064EF71E080E090E00E94240261E087E0FF
:100D10000E94B30160ED77E080E090E00E94240241
:100D200060E082E00E94B30160E083E00E94B301D2
:100D300060E084E00E94B30160E085E00E94B301BE
:100D400060E086E00E94B30160E087E00E94B301AA
:100D500080E491E00E94C80264EF71E080E090E0DE
:100D60000E94240261E084E00E94B30161E085E01A
:100D70000E94B3010E9456026093C1017093C201A8
:100D80008093C3019093C40184EF482E552453945B
:100D9000612C712C22242394312C0E945602672B43
:100DA000682B692B09F4EBC00E9456020091C50123
:100DB0001091C6012091C7013091C80160177107D9
:100DC0008207930708F414C10091C5011091C60170
:100DD0002091C7013091C8016B017C01C01AD10A72
:100DE000E20AF30A97018601083E13402105310506
:100DF00008F4CDC06093C5017093C6018093C7010C
:100E00009093C801409274025092750260927602EB
:100E100070927702109278021092790210927A0200
:100E200010927B0280916C0290916D02A0916E02F3
:100E3000B0916F028093700290937102A09372023E
:100E4000B09373020E94560260936C0270936D021D
:100E500080936E0290936F0289EC91E00E94F600FD
:100E6000843611F40E94D6020E94560260936802F2
:100E70007093690280936A0290936B020E945602FB
:100E80006B017C0184E591E00E9462024AE061E02E
:100E900070E080E090E00E946F028BE591E00E949C
:100EA00062024AE0C701B6010E946F028DE591E03F
:100EB0000E94620280916C0290916D02A0916E027C
:100EC000B0916F02A7019601281B390B4A0B5B0BEF
:100ED000CA01B9014AE00E946F028DE591E00E94CB
:100EE000620260916C0270916D0280916E0290912D
:100EF0006F02009170021091710220917202309184
:100F00007302601B710B820B930B4AE00E946F020D
:100F10008FE591E00E9462020E9456024AE00E9420
:100F20006F0281E691E00E94C8020E9456024B01C6
:100F30005C017C016B0132E0C30ED11CE11CF11C91
:100F40000E945602681579058A059B0528F0C61689
:100F5000D706E806F906A0F789EC91E00E94F600B2
:100F6000843611F40E94D6020E94560260936C02ED
:100F700070936D0280936E0290936F0208C00E947E
:100F80005602623071058105910508F00DCF6AE1C6
:100F900071E0CE0188960E949F0310E089EC91E0F9
:100FA0000E940401892B69F189EC91E00E94E20022
:100FB000082F1A8219821C821B821E821D828AA31C
:100FC0001BA2BE016E5D7F4FCE0101960E94D00331
:100FD0004D815E8169817A81CE0188960E9461038C
:100FE000CE0101960E943A040A30C1F611E0D6CF34
:100FF0006093C5017093C6018093C7019093C801A7
:10100000E3CE4CA55DA54115510591F088A599A5A4
:10101000415051095DA74CA7BC016F5F7F4F0E94F3
:10102000840CE8A5F9A58CA59DA5E80FF91F1082F1
:10103000112309F46BC068E671E0CE0188960E9426
:101040002403182F63E771E0CE0188960E942403E1
:10105000812309F45BC08BE791E00E94C80265E040
:1010600070E0CE0101960E94FB0368E871E0CE01BA
:1010700082960E949F03BE016F5F7F4FCE018296D2
:101080000E9427040E94B302CE0182960E943A0475
:10109000CE0101960E943A0465E070E0CE0101960F
:1010A0000E94FB0368E871E0CE0182960E949F03D4
:1010B000BE016F5F7F4FCE0182960E9427040E947F
:1010C000B302CE0182960E943A04CE0101960E949C
:1010D0003A0462E070E0CE0101960E94FB0364E9ED
:1010E00071E0CE0182960E949F03BE016F5F7F4F29
:1010F000CE0182960E9427040E94B302CE018296FE
:101100000E943A04CE0101960E943A04CE018896CC
:101110000E943A040E945602AB01BC018091C101B9
:101120009091C201A091C301B091C40188579C4E17
:10113000AF4FBF4F84179507A607B70708F0B0C099
:101140008FE991E00E94C8026091BF017091C001D7
:10115000CE0101960E94FB03CE0101960E94B302CC
:10116000CE0101960E943A046091C1017091C201C2
:101170008091C3019091C4011BA21AA21DA21CA2BE
:101180001FA21EA22AE0AE014F5F5F4F0E94DE0940
:10119000BE016F5F7F4FCE0182960E94D003CE01C9
:1011A00082960E94B302CE0182960E943A04009178
:1011B000BF011091C00161E00115110509F07DC06A
:1011C00083E00E94B30160E084E00E94B3010E94CA
:1011D00056026B017C0140EDC40E47E0D41EE11CB9
:1011E000F11C0E9456026C157D058E059F05C8F303
:1011F00061E082E00E94B30160E083E00E94B301FD
:101200000E9456026093C1017093C2018093C30192
:101210009093C4016B017C0128E8C20E23E1D21E29
:10122000E11CF11C0E9456026C157D058E059F0580
:10123000C8F361E00115110509F05EC086E00E9467
:10124000B3010E9456026B017C0130EDC30E37E002
:10125000D31EE11CF11C0E9456026C157D058E0503
:101260009F05C8F361E087E00E94B30160E086E07B
:101270000E94B30160E085E00E94B3013092C0019A
:101280002092BF010E9456026093C1017093C20177
:101290008093C3019093C4018AEA91E00E94C8023E
:1012A00080E090E0892B09F478CD0E94100188231A
:1012B00009F473CD0E94000070CD86E00E94B30156
:1012C00060E087E00E94B3010E9456026B017C013E
:1012D00050EDC50E57E0D51EE11CF11C0E945602D0
:1012E0006C157D058E059F05C8F361E085E00E94C1
:1012F000B30160E086E082CF83E00E94B3010E94E8
:1013000056026093C1017093C2018093C301909310
:10131000C4016B017C0140EDC40E47E0D41EE11C0A
:10132000F11C0E9456026C157D058E059F05C8F3C1
:1013300061E084E00E94B30160E083E00E94B301B9
:1013400060E082E00E94B3010130110509F09ACFFC
:101350001092C0011092BF0195CFFC0188279927F8
:10136000E89421912032E9F3293010F02E30C8F3AF
:101370002B3241F02D3239F4689404C00E94D60912
:10138000820F911D219120532A30C0F31EF49095B5
:1013900081959F4F0895BB274A3031F4992322F459
:1013A000BDE2909581959F4F0C94010A7AE0979F3A
:1013B000902D879F802D910D11240895BB27FA0150
:1013C000A62F6217710581059105330B30FB66F07E
:1013D000AA27660F771F881F991FAA1FA21710F050
:1013E000A21B63953850A9F7A05DAA3308F0A95D48
:1013F000A19336F7B111B1931082CA010C941A0A65
:10140000BB27FB015527AA27880F991FAA1FA417DE
:1014100010F0A41B83955051B9F7A05DAA3308F0D2
:10142000A95DA193009779F7B111B1931192CB0106
:101430000C941A0ADC01FC01672F71917723E1F704
:10144000329704C07C916D9370836291AE17BF0791
:10145000C8F30895A1E21A2EAA1BBB1BFD010DC003
:10146000AA1FBB1FEE1FFF1FA217B307E407F50754
:1014700020F0A21BB30BE40BF50B661F771F881F30
:10148000991F1A9469F760957095809590959B01C6
:10149000AC01BD01CF0108952F923F924F925F9210
:1014A0006F927F928F929F92AF92BF92CF92DF9274
:1014B000EF92FF920F931F93CF93DF93CDB7DEB7D9
:1014C000CA1BDB0B0FB6F894DEBF0FBECDBF09946D
:1014D0002A88398848885F846E847D848C849B84C4
:1014E000AA84B984C884DF80EE80FD800C811B81D2
:1014F000AA81B981CE0FD11D0FB6F894DEBF0FBE01
:10150000CDBFED010895EE0FFF1F0590F491E02D82
:1015100009940F931F93CF93DF938230910510F4BA
:1015200082E090E0E091AE02F091AF0230E020E086
:10153000B0E0A0E0309799F42115310509F44AC0D4
:10154000281B390B24303105D8F58A819B81611520
:10155000710589F1FB0193838283FE0111C04081F3
:1015600051810281138148175907E0F04817590744
:1015700099F4109761F012960C93129713961C939E
:101580003296CF01DF91CF911F910F910895009373
:10159000AE021093AF02F4CF2115310551F042177E
:1015A000530738F0A901DB019A01BD01DF01F80101
:1015B000C1CFEF01F9CF9093AF028093AE02CDCFB0
:1015C000FE01E20FF31F8193919322503109398379
:1015D0002883D7CF2091AC023091AD02232B41F468
:1015E00020910201309103013093AD022093AC02AF
:1015F00020910001309101012115310541F42DB7F1
:101600003EB74091040150910501241B350BE09138
:10161000AC02F091AD02E217F307A0F42E1B3F0BD2
:101620002817390778F0AC014E5F5F4F2417350754
:1016300048F04E0F5F1F5093AD024093AC02819370
:1016400091939FCFF0E0E0E09CCFCF93DF930097A2
:10165000E9F0FC01329713821282A091AE02B091A0
:10166000AF02ED0130E020E01097A1F4208131813C
:10167000820F931F2091AC023091AD0228173907D9
:1016800009F061C0F093AD02E093AC02DF91CF911D
:101690000895EA01CE17DF07E8F54A815B819E01D4
:1016A00041155105B1F7E901FB83EA83499159914D
:1016B000C40FD51FEC17FD0761F48081918102965C
:1016C000840F951FE90199838883828193819B838D
:1016D0008A83F0E0E0E012968D919C911397009739
:1016E000B9F52D913C911197CD010296820F931F70
:1016F0002091AC023091AD022817390739F63097A6
:1017000051F51092AF021092AE02B093AD02A093C9
:10171000AC02BCCFD383C28340815181840F951F1B
:10172000C817D90761F44E5F5F4F88819981480FD0
:10173000591F518340838A819B8193838283211522
:10174000310509F0B0CFF093AF02E093AE029ECF27
:10175000FD01DC01C0CF13821282D7CFB0E0A0E040
:10176000E4EBFBE00C944E0A8C01009751F4CB01A2
:101770000E94890A8C01C801CDB7DEB7E0E10C9464
:101780006A0AFC01E60FF71F9C0122503109E2179B
:10179000F30708F49DC0D901CD91DC911197C617CC
:1017A000D70798F0C530D10530F3CE0104978617DE
:1017B000970708F3C61BD70B2297C193D1936D935C
:1017C0007C93CF010E94250BD6CF5B01AC1ABD0ADA
:1017D0004C018C0E9D1EA091AE02B091AF02512C17
:1017E000412CF12CE12C109731F58091AC029091B5
:1017F000AD028815990509F05CC04616570608F039
:1018000058C08091000190910101009741F48DB77B
:101810009EB74091040150910501841B950BE81778
:10182000F90708F055C0F093AD02E093AC02F9015E
:1018300071836083A0CF8D919C91119712966C90CB
:10184000129713967C901397A815B90559F56C015A
:1018500042E0C40ED11CCA14DB0420F1AC014A19C9
:101860005B09DA011296159780F0628273825183C8
:101870004083D9016D937C93E114F10471F0D70199
:101880001396FC93EE93129776CF22968C0F9D1FA2
:10189000F90191838083F301EFCFF093AF02E093DE
:1018A000AE0269CF4816590608F42C017D01D30118
:1018B0009ACFCB010E94890A7C01009749F0AE01C2
:1018C000B8010E946B0CC8010E94250B870153CF01
:1018D00010E000E050CFFB01DC0102C001900D924E
:1018E00041505040D8F70895FB01DC018D910190E3
:1018F00080190110D9F3990B0895FB01DC010190C7
:101900000D920020E1F70895FB01DC0141505040A9
:1019100048F001900D920020C9F701C01D9241507E
:0A1920005040E0F70895F894FFCF5F
:10192A000000B0028000000000004601A600D300BB
:10193A0093010401E200F6000D0A00564D44505688
:10194A005F317C315F564D4450560A00564D445023
:10195A00525F0053746172746520546573743A005F
:10196A00456E646520546573742044757263686CAF
:10197A0061756600564D4450455F003A323A007C24
:10198A00005F564D44504500436F6E6E656374693F
:10199A006F6E00436F6E6E65637400436F6E6669A7
:1019AA00726D6174696F6E0053657474696E675FF6
:1019BA0052473D0053657474696E675F593D00551F
:1019CA006D7374656C6C756E67002D2D2D2D2D2D24
:0619DA002D2D2D2D000053
:00000001FF
