:100000000C945D000C9485000C9485000C94850084
:100010000C9485000C9485000C9485000C9485004C
:100020000C9485000C9485000C9485000C9485003C
:100030000C9485000C9485000C9485000C9485002C
:100040000C944B050C9485000C9419050C94F30446
:100050000C9485000C9485000C9485000C9485000C
:100060000C9485000C94850000000008000201003B
:100070000003040700000000000000000000000072
:10008000250028002B0000000000240027002A0083
:10009000040404040404040402020202020203032E
:1000A0000303030301020408102040800102040836
:1000B0001020010204081020950511241FBECFEF67
:1000C000D8E0DEBFCDBF12E0A0E0B1E0E8E9FEE19C
:1000D00002C005900D92AC38B107D9F723E0ACE827
:1000E000B2E001C01D92A638B207E1F710E0CDE5FD
:1000F000D0E004C02197FE010E942F0DCC35D1071E
:10010000C9F70E94D4050C944A0F0C94000090E0AB
:10011000FC01EC55FF4F249180579F4FFC018491C7
:10012000882399F090E0880F991FFC01EA57FF4F50
:10013000A591B491FC01E458FF4F859194918FB73C
:10014000F894EC91E22BEC938FBF0895AF92BF929D
:10015000CF92DF92EF92FF920F931F93CF93DF9393
:100160006C017B018B01040F151FEB015E01AE18C2
:10017000BF08C017D10759F06991D601ED91FC91E4
:100180000190F081E02DC6010995892B79F7C50111
:10019000DF91CF911F910F91FF90EF90DF90CF9063
:1001A000BF90AF900895FC01538D448D252F30E012
:1001B000842F90E0821B930B541710F0CF96089574
:1001C00001970895FC01918D828D981761F0A28DA1
:1001D000AE0FBF2FB11D5D968C91928D9F5F9F7367
:1001E000928F90E008958FEF9FEF0895FC01918D1D
:1001F000828D981731F0828DE80FF11D858D90E08A
:1002000008958FEF9FEF0895FC01918D228D892F26
:1002100090E0805C9F4F821B91098F73992708950E
:100220008FE992E00E94040121E0892B09F420E08B
:10023000822F089580E090E0892B29F00E94100120
:1002400081110C9400000895FC01A48DA80FB92F12
:10025000B11DA35ABF4F2C91848D90E001968F73EE
:100260009927848FA689B7892C93A089B1898C910D
:10027000837080648C93938D848D981306C002885C
:10028000F389E02D80818F7D80830895EF92FF9226
:100290000F931F93CF93DF93EC0181E0888F9B8DA9
:1002A0008C8D98131AC0E889F989808185FF15C063
:1002B0009FB7F894EE89FF896083E889F989808186
:1002C0008370806480839FBF81E090E0DF91CF9155
:1002D0001F910F91FF90EF900895F62E0B8D10E077
:1002E0000F5F1F4F0F731127E02E8C8D8E110CC0E6
:1002F0000FB607FCFACFE889F989808185FFF5CF31
:10030000CE010E942401F1CFEB8DEC0FFD2FF11DEA
:10031000E35AFF4FF0829FB7F8940B8FEA89FB896D
:1003200080818062CFCFCF93DF93EC01888D8823CB
:10033000B9F0AA89BB89E889F9898C9185FD03C048
:10034000808186FD0DC00FB607FCF7CF8C9185FF2D
:10035000F2CF808185FFEDCFCE010E942401E9CF4D
:10036000DF91CF91089590E0FC01E859FF4F24916F
:10037000FC01EC55FF4F3491FC01E057FF4FE49135
:10038000EE23C9F0222339F0233001F1A8F4213003
:1003900019F1223029F1F0E0EE0FFF1FE458FF4F72
:1003A000A591B4918FB7F894EC91611126C0309566
:1003B0003E233C938FBF08952730A9F02830C9F021
:1003C000243049F7809180008F7D03C080918000A8
:1003D0008F7780938000DFCF84B58F7784BDDBCFAC
:1003E00084B58F7DFBCF8091B0008F778093B00074
:1003F000D2CF8091B0008F7DF9CF3E2BDACF3FB7BF
:10040000F8948091910290919202A0919302B09100
:10041000940226B5A89B05C02F3F19F00196A11D97
:10042000B11D3FBFBA2FA92F982F8827BC01CD013E
:10043000620F711D811D911D42E0660F771F881F9D
:10044000991F4A95D1F708958F929F92AF92BF92CC
:10045000CF92DF92EF92FF924B015C010E94FF016D
:100460006B017C010E94FF016C197D098E099F09B7
:10047000683E734081059105A8F321E0821A910836
:10048000A108B10888EEC80E83E0D81EE11CF11C5B
:1004900081149104A104B10429F7FF90EF90DF903B
:1004A000CF90BF90AF909F908F9008952FB7F89402
:1004B00060918D0270918E0280918F0290919002D6
:1004C0002FBF0895FC0101900020E9F73197AF019B
:1004D000481B590BBC018FE992E00C94A6008F9247
:1004E0009F92AF92BF920F931F93CF93DF93CDB79D
:1004F000DEB7A1970FB6F894DEBF0FBECDBF19A22D
:10050000423008F44AE08E010F5D1F4F842E912C7B
:10051000B12CA12CA50194010E94D60CE62FB901A3
:10052000CA01EA30F4F4E05DD801EE938D01232B8B
:10053000242B252B79F790E080E0109719F0CD015E
:100540000E946202A1960FB6F894DEBF0FBECDBF27
:10055000DF91CF911F910F91BF90AF909F908F909F
:100560000895E95CE1CFCF93DF93FC01448155818D
:10057000608171818FE992E00E94A600EC018EE11A
:1005800091E00E9462028C0F9D1FDF91CF91089530
:10059000CF93DF930E946202EC018EE191E00E9412
:1005A00062028C0F9D1FDF91CF910895EF92FF9211
:1005B0000F931F93CF93DF9300D000D0CDB7DEB75A
:1005C0008FE992E00E94E2008FE992E00E94E2004F
:1005D0008E010F5F1F4F78018A3341F0F80181933C
:1005E0008F018FE992E00E94E200F6CFC7010E94DE
:1005F000070C182F8FE992E00E94E2008053990BBC
:100600008230910520F4682F812F0E94B3018FE979
:1006100092E00E94E2008A3011F08D30C1F78FE93C
:1006200092E00E94F6008A3021F48FE992E00E9465
:10063000E2000F900F900F900F90DF91CF911F91DC
:100640000F91FF90EF900895FC0124813581232BB9
:1006500039F421E0FB018081882349F020E007C0C4
:10066000808191810E942B0F21E0892BB9F7822F85
:1006700008950F931F93CF93DF93EC0188819981A5
:10068000009759F02A813B812617370730F081E027
:10069000DF91CF911F910F9108958B016F5F7F4F75
:1006A0000E945A0E009759F0998388831B830A830E
:1006B0002C813D81232B59F7FC011082E8CF80E08B
:1006C000E7CFEF92FF920F931F93CF93DF936115C4
:1006D000710541F480E0DF91CF911F910F91FF9060
:1006E000EF90089541155105B1F07B01EC010C81AB
:1006F0001D81040F151FB8010E943903882351F38F
:10070000288139818C819D81B701820F931F0E94BE
:10071000340F1D830C8381E0DECFCF93DF93EC0198
:1007200088819981009711F00E94D10D1982188259
:100730001D821C821B821A82DF91CF910895CF9374
:10074000DF93EC01FB0144815581608171810E943E
:100750006103811103C0CE010E948D03CE01DF91A0
:10076000CF910895EF92FF920F931F93CF93DF9352
:10077000EC017B018A01BA010E94390381110BC08F
:10078000CE010E948D03CE01DF91CF911F910F9179
:10079000FF90EF9008951D830C83B70188819981A4
:1007A0000E94340FF0CFFB0101900020E9F7319750
:1007B000AF01461B570B0C94B2030F931F93CF93BB
:1007C000DF93CDB7DEB762970FB6F894DEBF0FBEEA
:1007D000CDBF8C01CB01F8011182108213821282ED
:1007E000158214824AE0BE016F5F7F4F0E944C0C5D
:1007F000BE016F5F7F4FC8010E94D30362960FB6A0
:10080000F894DEBF0FBECDBFDF91CF911F910F9146
:100810000895FB01DC0111961C921E9213961C9206
:100820001E92129715961C921E9214978617970780
:1008300049F0608171816115710521F04481558114
:100840000C94B2030895FC0111821082138212826B
:1008500015821482FB0101900020E9F73197AF0166
:10086000461B570B0C94B203FC01808191810097C9
:1008700011F00C94D10D08956F927F928F929F92F8
:10088000AF92BF92CF92DF92EF92FF920F931F939E
:10089000CF93DF9300D000D000D0CDB7DEB77C017E
:1008A0006B0160E271E0CE0101960E942304F60123
:1008B0006480758083E0A82EB12C8FEF9FEF8C01B0
:1008C0000F5F1F4F06151705A8F5F6018080918070
:1008D00066E270E0C401800F911F0E94200F009714
:1008E00049F188199909F1E0AF1AB10841F75C01A3
:1008F0000196029710F560E271E0C7010E9423049F
:10090000CE0101960E943404C70126960FB6F894D2
:10091000DEBF0FBECDBFDF91CF911F910F91FF9032
:10092000EF90DF90CF90BF90AF909F908F907F908F
:100930006F9008958FEF9FEFD6CFA016B10628F4E1
:10094000902F812F8501A92EB82E60E271E0C7019A
:100950000E942304F601848095800815190580F60D
:10096000A814B90408F44501F60160817181FB0106
:10097000E80DF91DB0801082600F711FC70161156D
:10098000710551F00E94D303F60180819181880E98
:10099000991EF401B082B4CF0E948D03F5CFFF926F
:1009A0000F931F93CF93DF93EC018B01FB01F0803A
:1009B0000E94C00CF81621F06F2DCE010E94C80CC9
:1009C000F801F1802196CE010E94C00CF81621F0AA
:1009D0006F2DCE010E94C80CC801DF91CF911F91ED
:1009E0000F91FF9008951F920F920FB60F9211244E
:1009F0002F933F934F935F936F937F938F939F9327
:100A0000AF93BF93EF93FF938FE992E00E9424018D
:100A1000FF91EF91BF91AF919F918F917F916F91D6
:100A20005F914F913F912F910F900FBE0F901F90AC
:100A300018951F920F920FB60F9211242F938F9338
:100A40009F93EF93FF93E091AF02F091B00280810A
:100A5000E091B502F091B60282FD1BC090818091B9
:100A6000B8028F5F8F732091B902821741F0E09135
:100A7000B802F0E0E156FD4F958F8093B802FF91E8
:100A8000EF919F918F912F910F900FBE0F901F901C
:100A900018958081F4CF1F920F920FB60F921124F8
:100AA0002F933F938F939F93AF93BF9380918D022A
:100AB00090918E02A0918F02B091900230918C02A1
:100AC00023E0230F2D3758F50196A11DB11D20936A
:100AD0008C0280938D0290938E02A0938F02B0932C
:100AE00090028091910290919202A0919302B09114
:100AF00094020196A11DB11D8093910290939202E0
:100B0000A0939302B0939402BF91AF919F918F9164
:100B10003F912F910F900FBE0F901F90189526E8D0
:100B2000230F0296A11DB11DD2CFEFE9F2E013828F
:100B3000128288EE93E0A0E0B0E084839583A683E0
:100B4000B78380E191E09183808385EC90E0958785
:100B5000848784EC90E09787868780EC90E0918B87
:100B6000808B81EC90E0938B828B82EC90E0958B74
:100B7000848B86EC90E0978B868B118E128E138E71
:100B8000148EECE3F3E0168217821086118612862B
:100B900013861486158616861786108A118A128A7D
:100BA000138A148A158A0895CF93DF93CDB7DEB7E1
:100BB000E3970FB6F894DEBF0FBECDBF789484B52F
:100BC000826084BD84B5816084BD85B5826085BD49
:100BD00085B5816085BD80916E00816080936E00D7
:100BE00010928100809181008260809381008091C9
:100BF000810081608093810080918000816080937A
:100C000080008091B10084608093B1008091B00039
:100C100081608093B00080917A00846080937A0034
:100C200080917A00826080937A0080917A0081605E
:100C300080937A0080917A00806880937A00109285
:100C4000C10010927E0310927F03109280031092D5
:100C5000810310923E0310923F03109240031092C2
:100C600041030E9456026B017C014B015C0128EBA1
:100C7000820E2BE0921EA11CB11C0E9456026C1524
:100C80007D058E059F0528F086169706A806B906ED
:100C9000A0F768EE73E080E090E00E942402E0910B
:100CA000AF02F091B00282E08083E091AB02F0915C
:100CB000AC021082E091AD02F091AE0280E180833F
:100CC0001092B702E091B302F091B40286E0808303
:100CD000E091B102F091B202808180618083E09165
:100CE000B102F091B202808188608083E091B1020C
:100CF000F091B202808180688083E091B102F0912E
:100D0000B20280818F7D80830E94560260933E03F1
:100D100070933F03809340039093410381E291E0FD
:100D20000E9462020E9456026B017C014B015C0131
:100D30003AE0830E911CA11CB11C0E9456026C1556
:100D40007D058E059F0528F086169706A806B9062C
:100D5000A0F711E0109352030E94560260933E03E5
:100D600070933F03809340039093410382E391E0AB
:100D70000E946202E091AF02F091B00282E08083B3
:100D8000E091AB02F091AC021083E091AD02F091E2
:100D9000AE0281E280831092B702E091B302F0913B
:100DA000B40286E08083E091B102F091B2028081CA
:100DB00080618083E091B102F091B202808188600D
:100DC0008083E091B102F091B202808180688083DB
:100DD000E091B102F091B20280818F7D808382E048
:100DE0000E94870083E00E94870084E00E948700C1
:100DF00085E00E94870086E00E94870087E00E94CD
:100E0000870089E391E00E94C80261E082E00E94CD
:100E1000B30186E491E00E94C80264EF71E080E0D3
:100E200090E00E94240261E083E00E94B30184E527
:100E300091E00E94C80264EF71E080E090E00E94BF
:100E4000240261E084E00E94B30185E691E00E9403
:100E5000C80264EF71E080E090E00E94240261E04B
:100E600085E00E94B30185E791E00E94C80264EF2B
:100E700071E080E090E00E94240261E086E00E9440
:100E8000B30183E891E00E94C80264EF71E080E062
:100E900090E00E94240261E087E00E94B30184E9AF
:100EA00091E00E94C80260ED77E080E090E00E944F
:100EB000240260E082E00E94B30160E083E00E94CF
:100EC000B30160E084E00E94B30160E085E00E942D
:100ED000B30160E086E00E94B30160E087E00E9419
:100EE000B30184EA91E00E94C80282EB91E00E9483
:100EF000C80283EC91E00E94C80283ED91E00E9459
:100F0000C80281EE91E00E94C80282EF91E00E9447
:100F1000C80282E092E00E94C80264EF71E080E0C3
:100F200090E00E94240261E084E00E94B30161E04D
:100F300085E00E94B3010E9456026093970270936D
:100F400098028093990290939A0290E080E00E9428
:100F5000C00C90E0909305018093040181E090E043
:100F60000E94C00C90E0909301018093000182E008
:100F700090E00E94C00C90E09093030180930201E6
:100F800094EF492E55245394612C712C08EE13E0F4
:100F900080E0282E80E0382E0E945602672B682BB6
:100FA000692B09F4EDC00E945602C0909B02D090BC
:100FB0009C02E0909D02F0909E026C157D058E05CE
:100FC0009F0508F418C1C0909B02D0909C02E0904D
:100FD0009D02F0909E029B01AC012C193D094E0927
:100FE0005F0969017A0138EEC31633E0D306E104E4
:100FF000F10408F4CDC060939B0270939C0280932F
:101000009D0290939E0240924A0350924B0360923D
:101010004C0370924D0310924E0310924F031092A6
:101020005003109251038091420390914303A09189
:101030004403B09145038093460390934703A093E4
:101040004803B09349030E94560260934203709391
:10105000430380934403909345038FE992E00E94F9
:10106000F600843611F40E94D6020E945602609364
:101070003E0370933F0380934003909341030E948B
:1010800056026B017C0186E192E00E9462024AE016
:1010900061E070E080E090E00E946F028DE192E0FC
:1010A0000E9462024AE0C701B6010E946F028FE10E
:1010B00092E00E9462028091420390914303A091CA
:1010C0004403B0914503A7019601281B390B4A0B35
:1010D0005B0BCA01B9014AE00E946F028FE192E006
:1010E0000E94620260914203709143038091440325
:1010F00090914503C0904603D0904703E090480389
:10110000F09049036C197D098E099F094AE00E94FD
:101110006F0281E292E00E9462020E9456024AE05F
:101120000E946F0283E292E00E94C8020E9456026F
:101130006B017C014B015C0132E0830E911CA11C10
:10114000B11C0E9456026C157D058E059F0528F086
:1011500086169706A806B906A0F78FE992E00E94C6
:10116000F600843611F40E94D6020E945602609363
:10117000420370934303809344039093450308C054
:101180000E945602623071058105910508F00BCF6F
:1011900060E271E0CE0188960E942304F12C8FE971
:1011A00092E00E940401892B79F18FE992E00E947C
:1011B000E200E82E1A8219821C821B821E821D8286
:1011C0008AA31BA2BE016E5D7F4FCE0101960E94D5
:1011D000D3034D815E8169817A81CE0188960E9418
:1011E0006103CE0101960E9434044AE0E412D7CF95
:1011F000FF24F394D4CF60939B0270939C0280935E
:101200009D0290939E02DFCE4CA55DA54115510530
:1012100091F088A599A5415051095DA74CA7BC0143
:101220006F5F7F4F0E943B0FE8A5F9A58CA59DA598
:10123000E80FF91F1082FF2009F471C06AE272E022
:10124000CE0188960E942403F82E65E372E0CE0159
:1012500088960E9424038F2109F4AAC18DE392E0AD
:101260000E94C8026091040170910501CE010196AF
:101270000E94DD036AE472E0CE0182960E9423049C
:10128000BE016F5F7F4FCE0182960E949F030E9436
:10129000B302CE0182960E943404CE0101960E94D0
:1012A00034046091040170910501CE0101960E9401
:1012B000DD036AE472E0CE0182960E942304BE013F
:1012C0006F5F7F4FCE0182960E949F030E94B30200
:1012D000CE0182960E943404CE0101960E9434040D
:1012E0006091020170910301CE0101960E94DD031D
:1012F00066E572E0CE0182960E942304BE016F5F14
:101300007F4FCE0182960E949F030E94B302CE01BE
:1013100082960E943404CE0101960E943404CE01CC
:1013200088960E9434040E945602AB01BC012091B1
:10133000040130910501209FC001219F900D309F35
:10134000900D1124092E000CAA0BBB0BC090970224
:10135000D0909802E0909902F0909A028C0D9D1D19
:10136000AE1DBF1D84179507A607B70708F014C167
:1013700081E892E00E94C802609195027091960205
:10138000CE0101960E94DD03CE0101960E94B302B8
:10139000CE0101960E9434046091970270919802E8
:1013A0008091990290919A021BA21AA21DA21CA2DE
:1013B0001FA21EA22AE0AE014F5F5F4F0E94740C75
:1013C000BE016F5F7F4FCE0182960E94D303CE0194
:1013D00082960E94B302CE0182960E9434048091CC
:1013E00095029091960261E0892B09F080C183E01B
:1013F0000E94B30160E084E00E94B30184E591E0C3
:101400000E94C80283EC91E00E94C8020E9456022A
:101410006B017C01C0929702D0929802E0929902EF
:10142000F0929A020E945602AB01BC012091020187
:1014300030910301209FC001219F900D309F900D9E
:101440001124092E000CAA0BBB0B8C0D9D1DAE1D8B
:10145000BF1D481759076A077B0720F361E082E048
:101460000E94B30160E083E00E94B30182EB91E04F
:101470000E94C80286E491E00E94C8020E945602BF
:101480006B017C01C0929702D0929802E09299027F
:10149000F0929A020E945602AB01BC012091000119
:1014A00030910101209FC001219F900D309F900D30
:1014B0001124092E000CAA0BBB0B8C0D9D1DAE1D1B
:1014C000BF1D481759076A077B0720F380919502D3
:1014D0009091960261E0892B09F04FC186E00E944D
:1014E000B30183E891E00E94C8020E9456026B019A
:1014F0007C01C0929702D0929802E0929902F092F9
:101500009A020E945602AB01BC0120910201309167
:101510000301209FC001219F900D309F900D112449
:10152000092E000CAA0BBB0B8C0D9D1DAE1DBF1D03
:10153000481759076A077B0720F361E087E00E949C
:10154000B30160E086E00E94B30160E085E00E94A4
:10155000B30184E991E00E94C80281EE91E00E940B
:10156000C80283ED91E00E94C8028091950290919B
:101570009602009709F043C181E090E090939602B3
:10158000809395020E94560260939702709398028E
:101590008093990290939A022114310409F4FCCCAF
:1015A0000E941001882309F4F1CC0E940000EECCC7
:1015B00061E672E0CE0188960E942403882371F1CF
:1015C000BE01685D7F4FCE0182960E940904BE0174
:1015D0006E5D7F4FCE0101960E943C0489819A8105
:1015E000C12CD12C7601009719F00E94250C6B01BB
:1015F000D0920501C0920401CE0101960E943404EC
:10160000CE0182960E943404DFA6CEA6BE01625DA2
:101610007F4F90E080E00E94CF0481CE6CE672E0C4
:10162000CE0188960E942403882361F1BE01685D83
:101630007F4FCE0182960E940904BE016E5D7F4FEE
:10164000CE0101960E943C0489819A81C12CD12C43
:101650007601009719F00E94250C6B01D0920301CE
:10166000C0920201CE0101960E943404CE018296FE
:101670000E943404D9AAC8AABE01605D7F4F82E0EF
:1016800090E0C9CF66E772E0CE0188960E942403FD
:10169000882309F444CEBE01685D7F4FCE01829657
:1016A0000E940904BE016E5D7F4FCE0101960E942B
:1016B0003C0489819A81C12CD12C7601009719F0C4
:1016C0000E94250C6B01D0920101C0920001CE0155
:1016D00001960E943404CE0182960E943404DBAA53
:1016E000CAAABE016E5C7F4F81E090E094CF86E095
:1016F0000E94B30160E087E00E94B30183E891E0BB
:101700000E94C80282EF91E00E94C8020E94560225
:101710006B017C01C0929702D0929802E0929902EC
:10172000F0929A020E945602AB01BC012091020184
:1017300030910301209FC001219F900D309F900D9B
:101740001124092E000CAA0BBB0B8C0D9D1DAE1D88
:10175000BF1D481759076A077B0720F361E085E042
:101760000E94B30160E086E00E94B30183E891E04B
:101770000E94C80283ED91E07FCE83E00E94B30116
:101780000E9456026B017C01C0929702D09298028F
:10179000E0929902F0929A020E945602AB01BC01BB
:1017A0002091020130910301209FC001219F900DE3
:1017B000309F900D1124092E000CAA0BBB0B8C0D31
:1017C0009D1DAE1DBF1D481759076A077B0720F3F3
:1017D00061E084E00E94B30160E083E00E94B30115
:1017E00060E082E00E94B30185E691E00E94C802B9
:1017F00082EB91E00E94C80284EA91E0B4CE0197A6
:1018000009F0C0CE1092960210929502BBCEFC0158
:1018100088279927E89421912032E9F3293010F0A4
:101820002E30C8F32B3241F02D3239F4689404C0C5
:101830000E946C0C820F911D219120532A30C0F31D
:101840001EF4909581959F4F08951F93FC01992751
:101850008827BC01E89411911032E9F3193010F097
:101860001E30C8F31B3251F01D3249F4689406C093
:101870000E94570C610F711D811D911D1191105314
:101880001A30B0F33EF490958095709561957F4F36
:101890008F4F9F4F1F910895BB274A3031F49923F2
:1018A00022F4BDE2909581959F4F0C94970C592F8F
:1018B000482F372F262F660F771F881F991F660F17
:1018C000771F881F991F620F731F841F951F660F54
:1018D000771F881F991F08957AE0979F902D879F03
:1018E000802D910D11240895BB27FA01A62F6217B0
:1018F000710581059105330B30FB66F0AA27660F51
:10190000771F881F991FAA1FA21710F0A21B6395AB
:101910003850A9F7A05DAA3308F0A95DA19336F766
:10192000B111B1931082CA010C94B00CBB27FB011A
:101930005527AA27880F991FAA1FA41710F0A41BC8
:1019400083955051B9F7A05DAA3308F0A95DA19322
:10195000009779F7B111B1931192CB010C94B00CAF
:10196000DC01FC01672F71917723E1F7329704C006
:101970007C916D9370836291AE17BF07C8F3089591
:10198000F999FECF92BD81BDF89A992780B5089547
:10199000262FF999FECF1FBA92BD81BD20BD0FB68B
:1019A000F894FA9AF99A0FBE01960895A1E21A2EB8
:1019B000AA1BBB1BFD010DC0AA1FBB1FEE1FFF1FF3
:1019C000A217B307E407F50720F0A21BB30BE40B43
:1019D000F50B661F771F881F991F1A9469F760958A
:1019E0007095809590959B01AC01BD01CF01089544
:1019F0002F923F924F925F926F927F928F929F921F
:101A0000AF92BF92CF92DF92EF92FF920F931F930C
:101A1000CF93DF93CDB7DEB7CA1BDB0B0FB6F894BD
:101A2000DEBF0FBECDBF09942A88398848885F84FD
:101A30006E847D848C849B84AA84B984C884DF806E
:101A4000EE80FD800C811B81AA81B981CE0FD11D52
:101A50000FB6F894DEBF0FBECDBFED010895EE0FB7
:101A6000FF1F0590F491E02D09940F931F93CF93DE
:101A7000DF938230910510F482E090E0E0918403DE
:101A8000F091850330E020E0B0E0A0E0309799F4D9
:101A90002115310509F44AC0281B390B24303105C2
:101AA000D8F58A819B816115710589F1FB019383CA
:101AB0008283FE0111C04081518102811381481748
:101AC0005907E0F04817590799F4109761F01296FA
:101AD0000C93129713961C933296CF01DF91CF91FE
:101AE0001F910F9108950093840310938503F4CF01
:101AF0002115310551F04217530738F0A901DB01D8
:101B00009A01BD01DF01F801C1CFEF01F9CF909338
:101B1000850380938403CDCFFE01E20FF31F8193F1
:101B200091932250310939832883D7CF20918203A2
:101B300030918303232B41F4209108013091090156
:101B40003093830320938203209106013091070193
:101B50002115310541F42DB73EB740910A0150914E
:101B60000B01241B350BE0918203F0918303E217F4
:101B7000F307A0F42E1B3F0B2817390778F0AC01B0
:101B80004E5F5F4F2417350748F04E0F5F1F50938D
:101B9000830340938203819391939FCFF0E0E0E031
:101BA0009CCFCF93DF930097E9F0FC01329713822B
:101BB0001282A0918403B0918503ED0130E020E012
:101BC0001097A1F420813181820F931F209182030D
:101BD000309183032817390709F061C0F09383031C
:101BE000E0938203DF91CF910895EA01CE17DF07DA
:101BF000E8F54A815B819E0141155105B1F7E90184
:101C0000FB83EA8349915991C40FD51FEC17FD0757
:101C100061F4808191810296840F951FE901998377
:101C20008883828193819B838A83F0E0E0E012962F
:101C30008D919C9113970097B9F52D913C91119737
:101C4000CD010296820F931F20918203309183036E
:101C50002817390739F6309751F5109285031092FD
:101C60008403B0938303A0938203BCCFD383C28346
:101C700040815181840F951FC817D90761F44E5FC9
:101C80005F4F88819981480F591F518340838A8112
:101C90009B81938382832115310509F0B0CFF093A6
:101CA0008503E09384039ECFFD01DC01C0CF138246
:101CB0001282D7CFB0E0A0E0E0E6FEE00C94FA0C90
:101CC0008C01009751F4CB010E94350D8C01C801A5
:101CD000CDB7DEB7E0E10C94160DFC01E60FF71F5F
:101CE0009C0122503109E217F30708F49DC0D90185
:101CF000CD91DC911197C617D70798F0C530D10563
:101D000030F3CE0104978617970708F3C61BD70B4D
:101D10002297C193D1936D937C93CF010E94D10DF3
:101D2000D6CF5B01AC1ABD0A4C018C0E9D1EA09152
:101D30008403B0918503512C412CF12CE12C109798
:101D400031F580918203909183038815990509F0FC
:101D50005CC04616570608F058C080910601909165
:101D60000701009741F48DB79EB740910A01509149
:101D70000B01841B950BE817F90708F055C0F09389
:101D80008303E0938203F90171836083A0CF8D9177
:101D90009C91119712966C90129713967C901397C2
:101DA000A815B90559F56C0142E0C40ED11CCA143E
:101DB000DB0420F1AC014A195B09DA011296159790
:101DC00080F06282738251834083D9016D937C934A
:101DD000E114F10471F0D7011396FC93EE9312977E
:101DE00076CF22968C0F9D1FF90191838083F3019A
:101DF000EFCFF0938503E093840369CF481659062B
:101E000008F42C017D01D3019ACFCB010E94350D3E
:101E10007C01009749F0AE01B8010E94170FC8017C
:101E20000E94D10D870153CF10E000E050CFFB019D
:101E3000DC0102C001900D9241505040D8F7089546
:101E4000FC018191861721F08823D9F799270895FD
:101E50003197CF010895FB01DC018D91019080192C
:101E60000110D9F3990B0895FB01DC0101900D924B
:101E70000020E1F70895FB01DC014150504048F09B
:101E800001900D920020C9F701C01D9241505040B1
:081E9000E0F70895F894FFCF7C
:101E98000500020005000000860380000000000025
:101EA8004601A600D30093010401E200F6000D0AE2
:101EB80000564D4450565F317C315F564D44505664
:101EC8000A00564D4450525F005374617274652085
:101ED800546573743A00416D70656C5F315F52658B
:101EE80064263100416D70656C5F315F59656C6CBB
:101EF8006F77263100416D70656C5F315F477265A1
:101F0800656E263100416D70656C5F325F526564A5
:101F1800263100416D70656C5F325F59656C6C6F7E
:101F280077263100416D70656C5F325F4772656579
:101F38006E263100416D70656C5F315F52656426B5
:101F48003000416D70656C5F315F59656C6C6F77FF
:101F5800263000416D70656C5F315F477265656E54
:101F6800263000416D70656C5F325F5265642630C3
:101F780000416D70656C5F325F59656C6C6F7726D8
:101F88003000416D70656C5F325F477265656E2623
:101F98003000456E6465205465737420447572631F
:101FA800686C61756600564D4450455F003A323A98
:101FB800007C005F564D44504500436F6E6E65636C
:101FC80074696F6E00436F6E6E65637400436F6E65
:101FD8006669726D6174696F6E0053657474696EB9
:101FE800675F52473D0053657474696E675F593D7A
:101FF8000053657474696E675F5247005365747463
:10200800696E675F590053657474696E675F5252F1
:0C20180000556D7374656C6C756E67008C
:00000001FF
